:100000000C944D000C946C000C946C000C946C00DF
:100010000C946C000C946C000C946C000C946C00B0
:100020000C946C000C946C000C946C000C946C00A0
:100030000C946C000C9433040C946C000C946C00C5
:100040000C946C000C946C000C946C000C946C0080
:100050000C946C000C946C000C946C000C946C0070
:100060000C946C000C946C000C946C000C946C0060
:100070000C946C000C946C000C946C000C946C0050
:100080000C946C000C946C000C946C003C03CC023F
:10009000E1021C0327033403370311241FBECFEFF3
:1000A000D0E4DEBFCDBF11E0A0E0B1E0E0E7FAE0D0
:1000B00000E00BBF02C007900D92AA3CB107D9F730
:1000C00022E0AAECB1E001C01D92A731B207E1F72E
:1000D0000E9482040C9436050C940000CF93C82F24
:1000E0008A3019F48DE00E946E008091C00085FF77
:1000F000FCCFC093C60080E090E0CF91089581309E
:10010000910579F08230910579F00097C1F4019959
:1001100016C02091EE013091EF012130310539F404
:100120000EC0019907C00BC0019B09C006C081E049
:1001300090E005C082E090E002C080E090E000978F
:1001400021F08230910521F008951092080208955F
:1001500021E0209308022093090208958BE0809308
:1001600081008DE790E0909389008093880082E081
:1001700080936F001092850010928400809164013A
:1001800090916501A0916601B09167018093CA01C9
:100190009093CB01A093CC01B093CD018FB7806831
:1001A0008FBF089510928100089560936401709349
:1001B000650180936601909367016093CA01709313
:1001C000CB018093CC019093CD01089584B18760D9
:1001D00084B9089585B1816085B9089585B18E7F10
:1001E00085B9089585B1826085B985B18D7F85B95E
:1001F000089585B1846085B981E0982F9A95F1F7CB
:1002000095B19B7F95B98A95F1F70895CF93DF93C8
:10021000D82FC0E00BC0DD231CF40E94EA0002C00E
:100220000E94EE000E94F200DD0FCF5FC83098F30D
:100230000E94F900DF91CF91089580E005C0E0E0D1
:10024000F0E03197F1F78F5F8233C8F3089540E013
:1002500050E00CC000002F5F3F4F02C020E030E0B4
:10026000273063E03607B4F34F5F5F4F48175907F5
:10027000ACF308959BB19F7B9BB90E9406018BB1A3
:1002800080688BB900008BB18F778BB982E090E0EA
:100290000E942701089581E00E943A01089581316A
:1002A00020F481580E943A01089581550E943A0134
:1002B000089584E690E00E94270188E30E943A01B5
:1002C00086E00E943A018CE00E943A0181E00E949F
:1002D0003A018AE090E00E94270108959BB1906462
:1002E0009BB90E9406018BB180688BB900008BB16D
:1002F0008F778BB981E090E00E9427010895FF92EB
:100300000F931F93CF93DF93EB010DC0FF24F39462
:10031000F80E0E944F018E010F5F1F4F88810E94CF
:100320006E018F2DE80198819111F0CFDF91CF916F
:100330001F910F91FF9008950F931F93CF938830D3
:1003400098F48B0190E00896880F880F880F0E9420
:100350003A01C0E007C0F801EC0FF11D80810E9456
:100360006E01CF5FC830B8F3CF911F910F91089500
:100370001F93CF93DF93D82F9DEC699F912D11246C
:1003800096959695969510E3190F990F892F880FDA
:10039000880F980F691BC0E3C60F8D2F0E944F0175
:1003A000812F0E946E0181E08D0F0E944F018C2FE2
:1003B0000E946E01DF91CF911F910895CF93DF933B
:1003C000EC01009719F0019781F01FC0809116028F
:1003D00081111BC0029919C081E00E944F0180E287
:1003E0000E946E01C1E0D0E010C0029B0EC081E10E
:1003F0000E944F0180E20E946E0181E00E944F0145
:1004000080E00E946E01C0E0D0E0209721F0C13072
:10041000D10531F011C01092EF011092EE010CC025
:1004200081E090E09093EF018093EE0181E10E94E2
:100430004F0182E00E946E01CE01DF91CF910895BD
:100440000F931F93CF93DF938C018130910561F05F
:100450008230910581F0892BC1F4809108028823B4
:10046000A1F001E010E011C080910802882341F062
:1004700002E010E00AC080910802811106C003C0AA
:1004800000E010E002C000E010E00130110559F179
:100490000230110561F10115110509F047C0809185
:1004A0001602811143C04EE050E06BE271E08CE235
:1004B00091E00E94010580E280932B01C0E0D0E032
:1004C0000BC08C2F8E5F0E944F01FE01E55DFE4F39
:1004D00080810E946E01219680913B0190E0C817B7
:1004E000D9077CF323C08DE280932B011FC04EE01F
:1004F00050E06BE271E08CE291E00E94010580E245
:1005000080932B01C0E0D0E00BC08C2F8E5F0E9447
:100510004F01FE01E55DFE4F80810E946E01219634
:1005200080913B0190E0C817D9077CF3C801DF91A7
:10053000CF911F910F910895CF93C82F81E00E9412
:100540004F018C2F0E946E01CF9108950F931F933E
:10055000DC0180E007C0FD01E80FF11D90819032C1
:1005600059F48F5F082F10E020E030E004171507E2
:100570002607370780F380E01F910F9108950F93AE
:100580001F93CF938C018730910508F07AC0FC014E
:10059000EA5BFF4F0C94F80485E090E00E941C0594
:1005A0008F3F19F41092E00102C08093E0010E9495
:1005B0004B016AE771E082E00E947F0103E010E0F6
:1005C00060C0039902C005E010E08091D001813045
:1005D00009F057C08091EE019091EF01892B09F04D
:1005E00050C00E944B0167E971E081E00E947F01E9
:1005F0006091ED018091E001861788F485E090E03C
:100600000E94240561EA71E081E10E947F0160910E
:10061000ED018DE10E94B80106E010E032C06DEA04
:1006200071E081E10E947F016091E0018DE10E9413
:10063000B80106E010E025C0039905C0109216022B
:1006400004E010E01EC081E0809316021AC0039BF4
:1006500018C00E944B0181E00E944F0180E00E947F
:100660006E0102E010E00DC0039B0BC008C00399AF
:1006700008C005E010E005C001E010E002C001E0A4
:1006800010E002301105F9F024F40130110551F0A9
:1006900091C00330110509F484C00630110509F436
:1006A00086C088C01092CF011092ED0180E1EAEB84
:1006B000F1E0A0EDB1E001900D928A95E1F781E0C3
:1006C0008093160277C0109216024FE050E060E06F
:1006D00070E080ED91E00E94A602909109029923BA
:1006E000A1F090E0FC01E053FE4F2081213069F43D
:1006F000109209022091ED012F5F2093ED01FC0182
:10070000E053FE4F20E2208302C010920902809144
:10071000D001843069F48091EE019091EF01892B32
:1007200039F48091ED01882319F081508093ED0117
:100730004FE050E060E070E080ED91E00E94A602A2
:1007400080933B01C0E00CC082E08C0F0E944F01FF
:10075000EC2FF0E0E053FE4F80810E946E01CF5FEE
:10076000CF3090F3C091CF01C33298F44EE050E007
:1007700061ED71E080ED91E00E940105EC2FF0E069
:10078000E85FFE4F80818093DE01CF5FC093CF0191
:1007900002C01092CF016091ED018FE10E94B8017B
:1007A00009C081E08093160210923B0103C081E0F2
:1007B00080931602C801CF911F910F910895EF9277
:1007C000FF921F93CF93DF9310E044C0C12FD0E07E
:1007D000FE01EE0FFF1FE050FF4FE080F180D701D8
:1007E00016964D915D916D917C91199712968D9110
:1007F0009D910D90BC91A02D481759076A077B0762
:10080000B8F0D7011A96ED91FC911B978D919C91B0
:100810000995F70191838083FE01EE0FFF1FE050E1
:10082000FF4F0190F081E02D16821782108611860D
:10083000CC0FDD1FC050DF4FE881F98186819781A1
:10084000A085B185C296A11DB11D86839783A0871F
:10085000B1871F5F143008F4B9CFDF91CF911F919A
:10086000FF90EF9008951F920F920FB60F921124F0
:100870000BB60F922F933F934F935F936F937F939A
:100880008F939F93AF93BF93EF93FF938091CA0190
:100890009091CB01A091CC01B091CD010197A1091C
:1008A000B1098093CA019093CB01A093CC01B0937E
:1008B000CD01892B8A2B8B2B91F40E94DF03809131
:1008C000640190916501A0916601B09167018093E8
:1008D000CA019093CB01A093CC01B093CD01FF91BD
:1008E000EF91BF91AF919F918F917F916F915F91A8
:1008F0004F913F912F910F900BBE0F900FBE0F9015
:100900001F90189511B88FEF82B98AB91BB887B9B3
:1009100018B80E94E6000E94590162E370E080E08E
:1009200090E00E94D5000E94AE006CE571E080E08E
:100930000E949C0164E571E081E00E949C016CE4EE
:1009400071E082E00E949C0164E471E084E00E9416
:100950009C0181E00E944F0180E00E946E01ECEF5B
:10096000F1E01182108282E390E0A0E0B0E08283A7
:100970009383A483B58386839783A087B1872EED65
:1009800031E033872287E1EEF1E011821082828329
:100990009383A483B58386839783A087B1872FE74A
:1009A00030E033872287E0EFF1E01182108282830A
:1009B0009383A483B58386839783A087B18780E2DE
:1009C00092E093878287EAE0F2E0118210828AEF58
:1009D00090E0A0E0B0E082839383A483B583868314
:1009E0009783A087B1878FEB92E093878287FFCFB1
:1009F000EE0FFF1F0024001C0BBE0790F691E02DA8
:100A000009946817790768F4FB01DC01E40FF51F0E
:100A1000A40FB51F02C002900E9241505040D8F76B
:100A200008950C941305FB01DC0102C001900D92A6
:100A300041505040D8F70895F999FECF92BD81BD3D
:100A4000F89A992780B50895262FF999FECF92BD7F
:100A500081BDF89A019700B4021639F01FBA20BD83
:100A60000FB6F894FA9AF99A0FBE0895F894FFCF4A
:100A7000FC01E101F0010A022020012020202020B9
:100A80000120202020042020200101202020040417
:100A900020202020010420200120042020202020CC
:100AA00020202020202020202020000F05000000F2
:100AB000320000000E11110E04040A19000E11116B
:100AC0000A040719110A0E11110E040A0E11110E53
:100AD00007040A13010000000000000200000000EB
:100AE0006E0000000000320000004D6F6E737465F0
:100AF000722048756E746572202020507265737381
:100B00002053746172740047616D65204F76657281
:100B1000004E65772053636F72653A20004869671D
:100B2000682053636F72653A200020202020202027
:0A0B3000202020202020202020009B
:00000001FF
